:020000040800F2
:100000002009002071190008190400081B040008C9
:100010001D0400081F04000821040008000000005F
:1000200000000000000000000000000023040008A1
:10003000250400080000000027040008D71A000863
:100040008B1900088B1900088B1900088B19000800
:100050008B1900088B1900088B1900088B190008F0
:100060008B1900088B1900088B1900088B190008E0
:100070008B1900088B1900088B1900088B190008D0
:100080008B1900088B1900088B1900088B190008C0
:100090008B1900088B1900088B1900088B190008B0
:1000A0008B1900088B1900088B1900088B190008A0
:1000B0008B1900088B1900088B1900088B19000890
:1000C0008B1900088B1900088B1900088B19000880
:1000D0008B1900083F1A00088B1900088B190008BB
:1000E0008B1900088B1900088B1900088B19000860
:1000F0008B1900088B1900088B1900088B19000850
:100100008B1900088B190008832200088B1900083E
:100110008B1900088B1900088B1900088B1900082F
:100120008B1900088B1900088B1900088B1900081F
:10013000DFF80CD005F008FF00480047290200084E
:100140002009002070B5A34C05461021204600F080
:1001500070FA42F21076F0B92868C8281BDA3046E7
:1001600001F0A9FC1021204600F063FA98B9102193
:10017000204600F05EFA0028F9D0286820210A30D5
:100180002860204600F05FFAC0F10100C2B22021D1
:10019000204600F066FA0821204600F04AFAD0B95D
:1001A000304601F088FC0821204600F042FA90B960
:1001B0000821204600F03DFA0028F9D0962028605A
:1001C0002021204600F03FFAC0F10100C2B22021F8
:1001D000204600F046FA0421204600F02AFA0028C2
:1001E00021D1286864281EDD304601F064FC04211A
:1001F000204600F01EFA002815D10421204600F008
:1002000018FA0028F9D0286820210A3828602046EA
:1002100000F019FAC0F10100C2B22046BDE87040FA
:10022000202100F01EBA70BD8CB001F02DFC01F051
:100230003FFE02F0D0F8002002F04FF9002002F05B
:1002400056F902F093FD41F61F440021204601F0CB
:100250002AFD0021204601F07AFD4FF6FF740021AF
:10026000204601F020FF0021204601F0D5FE0125A7
:10027000182359A200210F20009502F09CFA1823A0
:1002800057A21C210020009502F095FA02E000BF61
:1002900002F08EF802F05BF804F08FF90028F7D135
:1002A00002F086F802F053F8002110234FA208460E
:1002B000009502F080FA10234EA20F210020009535
:1002C00002F079FA10234DA21F210020009502F0C0
:1002D00072FA10234BA22F210020009502F06BFA36
:1002E00002F035F8494C04AA03A902A804F0B4F9B5
:1002F00000285ED102F0C8FD07AA06A905A802F0F1
:10030000FAFD0AAA09A908A802F0DCFD01F004FF21
:10031000A06001F0BCFEE0606169484305F09AFC12
:100320000646206905F096FC02990F4605F088FA0A
:10033000314605F07FFA05F0ACFC206060601026C5
:10034000CDE9006501233A460021322002F089FB05
:10035000A06805F07FFC2E4F394605F0A7FACDE9DD
:100360000065024605230F21322002F07AFBE06887
:1003700005F070FC394605F099FACDE900650246B2
:1003800005231F21322002F06CFB206805F062FC7F
:10039000394605F08BFACDE90065024605232F2189
:1003A000322002F05EFB01F0D2FF18481030FFF758
:1003B000C9FED4E9000105F055F994E770B5154C74
:1003C0000546C1B2204601F08DF920880006FCD513
:1003D000284670BD0018014057616974696E670056
:1003E000496E697469616C697365000050495443D2
:1003F000483A00004C6566743A000000526967682C
:10040000743A000050574D3A0000000000000020F0
:1004100000002041003801407047FEE7FEE7FEE79C
:10042000FEE770477047704727490843274908602F
:100430007047F0B50F21C478027801234FF0E02611
:10044000DCB1224C2468457804F4E064C4F5E0642F
:10045000240AC4F10407E1408478BD400C402C43D9
:1004600021011B4C1155007800F01F018B40400901
:1004700006EB8000C0F80031F0BD02F01F008340A1
:10048000500906EB8000C0F88031F0BD114A1140E0
:1004900001430E48001F016070470C4A121D0029DD
:1004A000116801D0014300E08143116070474FF0B3
:1004B000E0210428086903D020F004000861704797
:1004C00040F00400FAE700000000FA050CED00E03F
:1004D00000E400E080FFFF1F8F4910B5884206D17D
:1004E0000121042000F048FA002104203BE08B4960
:1004F000884206D10121082000F03EFA00210820A0
:1005000031E08749884206D10121102000F034FAF9
:100510000021102027E08349884206D101212020B4
:1005200000F02AFA002120201DE07F49884206D1F0
:100530000121402000F020FA0021402013E07B49F7
:10054000884206D10121802000F016FA0021802087
:1005500009E0774988420AD184150121204600F03C
:100560000BFA00212046BDE8104000F005BA10BD8E
:1005700010B50121084600F0FFF90021BDE8104048
:10058000012000F0F9B9F0B5CA78002502F00F0398
:10059000D20601D58A7813430C784FF00F0E012252
:1005A000E4B104680F8802FA05F63740B74211D16A
:1005B0004FEA850C0EFA0CF724EA070703FA0CF44D
:1005C0003C43CF78282F02D0482F02D002E046616A
:1005D00000E006616D1C082DE4D304600C88FF2C3C
:1005E0001ED944685FF0000606F1080702FA07F515
:1005F0000F882F40AF420FD14FEA860C0EFA0CF74E
:10060000BC4303FA0CF73C43CF78282F00D1456157
:10061000CF78482F00D10561761C082EE4D34460C2
:10062000F0BD4FF6FF710180022181700421C1707D
:1006300070470246002092680A4200D001207047AD
:10064000806880B2704702460020D2680A4200D01B
:1006500001207047C06880B27047016170474161F6
:1006600070470AB10161704741617047C1607047CE
:1006700041F4803282618161826181698069704761
:100680002C4B10B51A684FF68074224042EA0010D5
:100690000843186010BD2849C8617047F0B5254C63
:1006A000002801DAE36900E06368420D120185B2B7
:1006B000C0F301579540C0F30346032F05D0C20293
:1006C0000AD50322B240934307E023F070626368C7
:1006D00023F07063636002E0AB4343F0706201B1EA
:1006E0002A43002801DAE261F0BD6260F0BD10B576
:1006F0008A0721F003040F49130F21440F228C684D
:100700009A4094438C608A68984002438A6010BD86
:100710000949DC310860704700080140000C0140C5
:10072000001001400014014000180140001C01406D
:10073000002001400000014000002042A54801685F
:1007400041F0010101604168A34A11404160016824
:10075000A24A11400160016821F4802101604168D2
:1007600021F4FE0141604FF41F01816070479949F7
:100770000A6822F480320A600A6822F480220A6041
:10078000B0F5803F07D0B0F5802F03D1086840F462
:10079000A02008607047086840F48030F9E70246FE
:1007A000002053098B49012B0AD0022B0AD0496A39
:1007B00002F01F02012393400B4200D0012070473A
:1007C0000968F5E7096AF3E718B500204FF4A0645B
:1007D00000903120FFF7E3FF0099491C0091A142EE
:1007E00001D00028F5D03120FFF7D9FF002800D034
:1007F000012018BD77490A6822F0F80242EAC000D9
:1008000008607047764908607047724A5368084329
:1008100023F47C1318435060704771490866704791
:100820006C4A516821F003010143516070476948E7
:10083000406800F00C007047664A516821F0F001F2
:10084000014351607047634A516821F4E0610143FC
:10085000516070475F494A6822F4605242EAC00022
:10086000486070475B4A0029517A01D0014300E09B
:100870008143517270475A49D83108607047554AD0
:10088000516821F4404101435160704751490022B1
:1008900081F8202081F82020012802D0042802D1EC
:1008A000052081F8200070474E490860704749498B
:1008B0000A6A02430A6270474A494439086070472D
:1008C00030B544494A6812F00C03474A03D0042B60
:1008D00001D0082B22D002604A680F23434C03EA60
:1008E0001212A35C0268DA4042604B68072505EAF1
:1008F0001323E35C22FA03F383604B6805EAD323F6
:10090000E35C22FA03F2C2604968032303EA9131EF
:10091000231F595CB2FBF1F1016130BD4A684B689D
:1009200002F470124FF0020413F4803F04EB924281
:1009300002D04B689B0301D52D4B00E02A4B5A4354
:10094000C9E7244A0029516901D0014300E08143ED
:10095000516170471F4A0029916901D0014300E0AD
:100960008143916170471B4A0029D16901D001433D
:1009700000E08143D1617047164A0029D16801D057
:10098000014300E08143D1607047124A0029116998
:1009900001D0014300E081431161704711494039A2
:1009A000086070470E49C86470470A49C8717047AB
:1009B0000848416A41F0807141627047054A01462A
:1009C000002092680A4200D00120704701498872D5
:1009D00070470000001002400000FFF8FFFFF6FE25
:1009E000000042428004424200127A001C000020B3
:1009F00000093D00F94910B5884202D10121C41413
:100A000086E0B0F1804F09D0F54988420DD101212F
:100A10000220FFF7BAFF0021022064E0012108460E
:100A2000FFF7B3FF002101205DE0EE49884206D1C7
:100A300001210420FFF7A9FF0021042053E0EA4927
:100A4000884206D101210820FFF79FFF00210820DE
:100A500049E0E649884206D101211020FFF795FFC1
:100A6000002110203FE0E249884206D101212020E8
:100A7000FFF78BFF0021202035E0DE49884202D1BC
:100A80000121441444E0DC49884202D10121CC0414
:100A90003EE0DA49884202D101210C0538E0D8490C
:100AA000884202D101214C0532E0D649884206D164
:100AB00001214020FFF769FF0021402013E0D249C7
:100AC000884206D101218020FFF75FFF00218020AE
:100AD00009E0CE4988420AD1841501212046FFF75A
:100AE00054FF00212046BDE81040FFF74EBFC84923
:100AF000884202D101210C040AE0C649884202D191
:100B000001214C0404E0C44988420AD101218C042B
:100B10002046FFF731FF2046BDE810400021FFF7D7
:100B20002BBF10BD30B50288AC4BB24C98420DD0F3
:100B3000A0420BD0B0F1804F08D0A94DA84205D0FB
:100B4000A84DA84202D0A84DA84203D122F07005BA
:100B50004A882A43A54DA84206D0A54DA84203D0F5
:100B600022F44075CA882A4302808A8882850A88CE
:100B7000028598420AD0A04208D0A54A904205D0EA
:100B8000A44A904202D0A44A904201D1097A018637
:100B90000121818230BD30B5028C22F00102028435
:100BA000028C8388048B22F0020224F073050C88E7
:100BB0002C430D8915434A882A43884DA8420BD0FF
:100BC0008C4DA84208D0924DA84205D0914DA84224
:100BD00002D0914DA8420DD122F008054A8923F494
:100BE00040732A4322F004058A882A438D891D43D5
:100BF000CB892B4383800483C9888186028430BDDE
:100C000070B5028C22F010020284028C8488038B5F
:100C10000D8823F4E6464FF6FF7303EA05253543B6
:100C20000E8922F0200203EA061616434A8803EAD8
:100C300002123243694EB04202D06E4EB04215D11C
:100C400022F080064A8924F4406403EA0212324307
:100C500022F040068A8803EA021232438E8903EAB0
:100C600086062643CC8903EA8404344384800583C2
:100C7000C9880187028470BD70B5028C22F480722D
:100C80000284028C8488838B0D8823F073031D43B8
:100C900022F400730E894FF6FF7202EA06261E4305
:100CA0004B8802EA032333434C4EB04202D0514EEC
:100CB000B04215D123F400664B8924F4405402EA73
:100CC0000323334323F480668B8802EA03233343F0
:100CD0008E8902EA06162643CC8902EA04143443BC
:100CE00084808583C9888187038470BD70B5028C38
:100CF00022F480520284048C8288838B0D8823F432
:100D0000E6464FF6FF7303EA0525354324F4005603
:100D10000C8903EA043434434E8803EA063626433A
:100D20002E4CA04202D0334CA04205D122F4804484
:100D30008A8903EA8212224382808583C988A0F8C7
:100D40004010068470BD828B22F440628283828BC5
:100D50004FF6FF7303EA01210A4382837047828BB7
:100D600022F00C028283828B0A4382837047028BBB
:100D700022F440620283028B4FF6FF7303EA0121E3
:100D80000A4302837047F0B5048C24F010040484F5
:100D9000078B048C4FF6FF7527F4734705EA03337E
:100DA0003B4305EA02221A430C4B05EA011698421E
:100DB0000ED0104B98420BD0B0F1804F08D0084BAA
:100DC000984205D0074B984202D0074B984225D154
:100DD00024F02001314341F0100124E0002C0140B7
:100DE0000004004000080040000C004000100040DB
:100DF0000014004000340140004C0140005001400C
:100E00000054014000180040001C00400020004039
:100E100000400140004401400048014024F0A0038C
:100E20000B4343F0100102830184F0BD028B22F0DA
:100E30000C020283028B0A430283704770B5048C54
:100E400024F001040484058B048C4FF6FF7606EA37
:100E50000313134325F0F305F94A2B4390420ED0B8
:100E6000F84A90420BD0B0F1804F08D0F64A904239
:100E700005D0F64A904202D0F54A904202D124F0C1
:100E8000020201E024F00A020A4342F00101038356
:100E9000018470BD2DE9F05F0D4604460888E84FD7
:100EA000DFF8A0C3DFF8A0834988AA882B894FF018
:100EB000804960B3042832D04FF6FF7E082836D030
:100EC000208C9B4620F480502084A38B268C704677
:100ED00000EA022223F473431A4300EA0B30104362
:100EE0000EEA013EBC420BD0644509D04C4507D008
:100EF000444505D0D54A944202D0D54B9C4245D1B9
:100F000026F4005141EA0E0141F4805143E02046AD
:100F1000FFF794FFE9882046BDE8F05F86E72046AA
:100F2000FFF731FFE9882046BDE8F05F1FE7208C1E
:100F300020F480702084B4F81CA0208C0EEA0313E7
:100F400013432AF0F30A0EEA012B43EA0A03BC42D8
:100F50000BD0644509D04C4507D0444505D0BB4A69
:100F6000944202D0BA4A944204D120F4007040EA7C
:100F70000B0002E020F42060084340F48070A3835B
:100F80002084E9882046BDE8F05FE8E626F40242C6
:100F90000A4342F48051A08320462184E988BDE8B9
:100FA000F05FD0E62DE9F0410C460026498807465F
:100FB000012501B90226A288012A00D10225208834
:100FC00023890028384610D0FFF7DDFEE188384637
:100FD000FFF7CDFE23892A4631463846FFF72EFF1C
:100FE000E1883846BDE8F04120E7FFF727FFE188B8
:100FF0003846FFF71BFF23892A4631463846FFF75C
:10100000C2FEE1883846BDE8F041B0E610B50A8876
:101010004B88CC881A438B8823431A430B891A4385
:101020004B8989891A430A43A0F8442010BD4FF622
:10103000FF71818000210180C18041800172704771
:101040000021018041808180C180018141818181B5
:10105000C181704700210180418001228280C180CE
:10106000018170470021018041808180C180018120
:101070004181818170470029018802D041F001013E
:1010800001E021F0010101807047002930F8441F80
:1010900002D041F4004101E0C1F30E01018070472C
:1010A000002A828901D00A4300E08A438281704786
:1010B000818270471143A0F848107047002A828946
:1010C00001D00A4300E08A4382817047018921F000
:1010D000070101817047028922F070020A430281F0
:1010E000704700B50346FFF7F6FF188940F0070088
:1010F000188100BD70B516460D46602904464FF0B4
:10110000010231460AD0FFF799FE29462046FFF733
:10111000E2FF208940F00700208170BDFFF733FE19
:10112000F3E730B504894FF6FF7505EA032313434F
:10113000E4B20B432343038130BD10B50446FFF7EF
:10114000F0FF208940F07700208110BD10B50446E3
:10115000FFF7E7FF208940F48040208110BD018522
:1011600082827047028822F070020A430280704730
:1011700070B50589048B068C25F007050D434FF6E5
:10118000FC410C4040F201110C434FF6FF7101EAA3
:10119000031126F0220611433143058104830184A3
:1011A00070BD028B22F070020A4302837047028BEB
:1011B0004FF6FF7322F4E04203EA01211143018359
:1011C0007047828B22F070020A4382837047828BC1
:1011D0004FF6FF7322F4E04203EA012111438183B9
:1011E00070470029018802D041F0800101E021F020
:1011F0008001018070470029818802D041F00401FC
:1012000001E021F00401818070470029818802D02B
:1012100041F0080101E021F00801818070470029B8
:10122000818802D041F0010101E021F001018180BB
:101230007047028B22F008020A43028370470000C5
:10124000002C014000340140000400400008004030
:10125000000C0040028B4FF6FF7322F4006203EA99
:10126000012111430183E9E7828B22F008020A433E
:101270008283E3E7828B4FF6FF7322F4006203EA76
:10128000012111438183D9E7028B22F004020A4332
:101290000283D3E7028B4FF6FF7322F4806203EAE6
:1012A000012111430183C9E7828B22F004020A4322
:1012B0008283C3E7828B4FF6FF7322F4806203EAD6
:1012C000012111438183B9E7028B22F080020A4396
:1012D0000283B3E7028B4FF6FF73C2F30E0203EAF9
:1012E000012111430183A9E7828B22F080020A4386
:1012F0008283A3E7828B4FF6FF73C2F30E0203EAE9
:1013000001211143818399E7028C22F002020A43F2
:10131000028493E7028C22F008020A4302848DE7DC
:10132000028C4FF6FF7322F0200203EA01111143F1
:10133000018483E7028C4FF6FF7322F0800203EAF8
:1013400001111143018479E7028C4FF6FF7322F4F7
:10135000007203EA0121114301846FE7028C4FF60A
:10136000FF7322F4006203EA01211143018465E75F
:10137000028C4FF6FF7322F4005203EA013111434D
:1013800001845BE710B50123048C8B409C430484EB
:10139000038C8A401343038410BD10B50423048CCE
:1013A0008B409C430484038C8A401343038410BD08
:1013B00030B50124058C00F118038C40A543058449
:1013C00089B108290FD0091FC1F34E0018440168E4
:1013D00021F4E041016001684FF6FF7303EA022245
:1013E0001143016030BD03EB5100016821F0700131
:1013F00001600168F4E70029018802D041F0020190
:1014000001E021F00201018018E70029018802D0E3
:1014100041F0040101E021F0040101800EE7002900
:10142000818802D041F0800101E021F080018180BB
:1014300004E7028822F00802028002880A43028040
:10144000FCE6828822F07002828082880A438280D1
:10145000F4E6028922F00702028102890A4302812E
:10146000ECE6028922F08002028102890A430281AD
:10147000E4E68184E2E68185E0E68186DEE60187B6
:10148000DCE68187DAE6A0F84010D7E6028822F48D
:101490004072028002880A430280CFE6808ECDE649
:1014A000008FCBE6808FC9E6B0F84000C6E6808C9E
:1014B000C4E6008DC2E602460020128A0A4200D02D
:1014C0000120BBE6C9430182B8E602460020138A28
:1014D00092890B4202EA010202D0002A00D00120C8
:1014E000ACE6C9430182A9E6C64910B588420AD1D3
:1014F00001218C032046FFF73FFA2046BDE810404B
:101500000021FFF739BAC049884202D101214C04B9
:1015100010E0BE49884202D101218C040AE0BC4996
:10152000884202D10121CC0404E0BA4988420AD1A0
:1015300001210C052046FFF728FA2046BDE810409F
:101540000021FFF722BA10BD30B50446008A85B0ED
:101550000D464CF6FF710840E98801432182A189BC
:101560004EF6F3100140A8882A8910436A890A437D
:101570001043A081A08A4FF6FF410840A98901438A
:10158000A1826846FFF79CF99E48844201D10398E6
:1015900000E00298A1890904002900EBC00101EBD9
:1015A0000010296802DA4FEA410101E04FEA8101A7
:1015B000B0FBF1F06422B0FBF2F14FEA01114FEA07
:1015C00011136FF018056B4300EB8300A3891D0412
:1015D0004FF0320306D503EBC000B0FBF2F000F091
:1015E000070005E003EB0010B0FBF2F000F00F0085
:1015F0000843208105B030BD4FF416510160002131
:101600008180C18001810C2242818181704710B5A7
:10161000038A4FF2FF0213400A884C8822438C88C9
:10162000C9880C4322431A43028210BD0021018065
:1016300041808180C18070470029818902D041F4B6
:10164000005101E021F400518181704710B5C1F3D0
:10165000421301F01F040121A140012B07D0022BEE
:1016600007D01430002A026805D00A4304E00C3089
:10167000F8E71030F6E78A43026010BD002A828A3C
:1016800001D00A4300E08A4382827047028A22F036
:101690000F020282028A0A4302827047828922F480
:1016A0000062828182890A43828170470029818990
:1016B00002D041F0020101E021F002018181704776
:1016C000028A22F020020282028A0A4302827047C2
:1016D0000029018A02D041F4804101E021F48041D7
:1016E00001827047C1F30801818070478088C0F390
:1016F00008007047818941F0010181817047028BA8
:10170000D2B20283028B42EA012101837047028B2D
:1017100002F47F420283028B0A430283704700294E
:10172000818A02D041F0200101E021F02001818274
:1017300070470029818A02D041F0100101E021F0B8
:101740001001818270470029818A02D041F008018E
:1017500001E021F00801818270470029818902D0CF
:1017600041F4004101E0C1F30E018181704700297D
:10177000818A02D041F4006101E021F4006181829C
:101780007047828A22F004028282828A0A4382821D
:1017900070470029818A02D041F0020101E021F066
:1017A0000201818270470246002012880A4200D05E
:1017B00001207047C9430180704730B501F01F0216
:1017C00001240025C1F3421304FA02F2012B0FD0C9
:1017D000022B0FD0838A4FEA11210088134204FAAA
:1017E00001F400EA040001D000B10125284630BD13
:1017F0008389F0E7038AEEE70A0A01219140C94391
:10180000018070470038014000440040004800401B
:10181000004C0040005000400CB500214C480191A4
:101820000091026842F4803202604FF4A0630268C3
:1018300002F400320092019A521C0192009A12B9ED
:10184000019A9A42F3D10268920333D501210091A3
:1018500040490A6842F010020A600A6822F0030256
:101860000A600A6842F002020A6041684160416809
:101870004160416841F480614160416821F47C111C
:101880004160416841F4E8114160016841F08071B4
:10189000016001688901FCD5416821F003014160C4
:1018A000416841F0020141604168C1F381010229B0
:1018B000FAD10CBD00910CBD254810B5016841F06E
:1018C000010101604168244A114041600168234AD6
:1018D00011400160016821F480210160416821F418
:1018E000FE0141604FF41F018160FFF795FF1C4925
:1018F0004FF00060086010BD154910B54868194ADE
:1019000010F00C03184803D0042B01D0082B0BD087
:1019100002604968144AC1F30311121D515C026848
:1019200022FA01F2026010BD4A684B6802F470129C
:101930004FF0020413F4803F04EB924202D04B6854
:101940009B0301D5094B00E0064B5A43E0E700003A
:1019500000100240002002400000FFF8FFFFF6FEEA
:1019600008ED00E000127A002C00002000093D0084
:101970000648804706480047FEE7FEE7FEE7FEE729
:10198000FEE7FEE7FEE7FEE7FEE7FEE7B918000820
:101990003101000870B586B0012144F20400FEF761
:1019A000D9FF364D2846FFF79FFD6815ADF81000AA
:1019B00001248DF812401820314E8DF8130004A92F
:1019C0003046FEF7E0FDA002ADF8100004208DF8CF
:1019D00013008DF8124004A93046FEF7D4FD2520EF
:1019E0008DF8140002218DF815108DF816108DF861
:1019F000174005A8FEF71DFD00214FF4165000907A
:101A0000ADF80810ADF804100C20ADF80610ADF8D4
:101A10000C10ADF80A0069462846FFF795FD012233
:101A200040F225512846FFF711FE01212846FFF715
:101A300003FE4FF4A060FEF7F7FC06B070BD70B572
:101A40000E4D40F225512846FFF7B7FE18B1284643
:101A5000FFF74CFEC4B221462846FFF743FE094C6F
:101A600020212046FEF7EFFDC0F10100C2B2204662
:101A7000BDE870402021FEF7F4BD000000380140B1
:101A800000080140000C0140134814490068B0FBF5
:101A9000F1F0B0F1807F0DD220F07F414FF0E020D7
:101AA000491E41610E4AF021117000218161072118
:101AB00001617047FEE701B50A48009901600168BD
:101AC0000029FCD108BD07480168002902D001683F
:101AD000491E01607047F6E72C00002040420F00CD
:101AE00023ED00E04000002030B50C460546012102
:101AF00089B00846FEF737FF01210920FEF72AFFCB
:101B00000121E548FEF7CAFD0820ADF81C001820A9
:101B10008DF81F0003208DF81E0007A9DF48FEF78F
:101B200032FDADF80450ADF8004000244FF0804580
:101B3000ADF80640ADF8024069462846FEF7F2FFD0
:101B40007020ADF80C000120ADF80E00ADF8144087
:101B500003A92846FFF754F808212846FFF77AFB27
:101B600001212846FFF787FA09B030BD30B50C4691
:101B70000546012189B00846FEF7F5FE0121042043
:101B8000FEF7E8FE0320ADF81C0018218DF81F10A9
:101B90008DF81E0007A9C248FEF7F5FCADF81450F9
:101BA000ADF8104000244FF08045ADF81640ADF878
:101BB000124004A92846FEF7B5FF7020ADF80000DA
:101BC0000120ADF80200ADF8084069462846FEF74E
:101BD000E2FF69462846FFF713F808212846FFF779
:101BE00028FB08212846FFF735FB01212846FFF78F
:101BF00042FAB9E730B50C46054689B00121042008
:101C0000FEF7B1FE01210920FEF7A4FE4FF470702B
:101C1000ADF81C0018208DF81F0003208DF81E0061
:101C200007A99E48FEF7AFFCADF81450ADF8104080
:101C300000249C4DADF81640ADF8124004A928468A
:101C4000FEF770FF6020ADF800000120ADF8020043
:101C5000ADF8084069462846FEF79DFF69462846CC
:101C6000FEF7CEFF69462846FFF706F86946284684
:101C7000FFF73CF808212846FFF7DBFA0821284641
:101C8000FFF7E8FA08212846FFF7EEFA0821284670
:101C9000FFF7F0FA01212846FFF7A3FA01212846B1
:101CA000FFF7E9F960E730B50C46054689B0012138
:101CB0000220FEF758FE01210420FEF74BFEC02053
:101CC000ADF81C0018208DF81F0003208DF81E00B1
:101CD00007A97348FEF757FCADF81450ADF8104053
:101CE0000024714DADF81640ADF8124004A9284605
:101CF000FEF718FF6020ADF800000120ADF80200EB
:101D0000ADF80840ADF80C40ADF80440ADF80A401D
:101D1000ADF80E4069462846FEF73DFF6946284665
:101D2000FEF76EFF08212846FFF783FA08212846B0
:101D3000FFF790FA08212846FFF796FA0121284676
:101D4000FFF7A3F901212846FFF795F90CE730B515
:101D50000C460546012189B0C802FEF7FBFD0121B2
:101D60000420FEF7F7FD4FF41060ADF81C001820BA
:101D70008DF81F0003208DF81E0007A94848FEF7C4
:101D800002FCADF81450ADF810400024474DADF8FA
:101D90001640ADF8124004A92846FEF7C3FE6020A5
:101DA000ADF800000120ADF80200ADF80840ADF834
:101DB0000C40ADF80440ADF80A40ADF80E4069465D
:101DC0002846FEF7E8FE69462846FEF78FFF082101
:101DD0002846FFF72EFA08212846FFF74BFA012183
:101DE0002846FFF7FEF901212846FFF74EF90121A9
:101DF0002846FFF740F9B7E610B52C4C0A212046DB
:101E0000FFF73BFB00212046FFF739FB0A21204664
:101E1000FFF737FB2046BDE810400021FFF733BB3A
:101E200010B5224C00212046FFF727FB0A2120464F
:101E3000FFF725FB00212046FFF723FB2046BDE8E6
:101E400010400A21FFF71FBB10B5184C0021204697
:101E5000FFF713FB0A212046FFF711FB0021204664
:101E6000FFF70FFB2046BDE810400A21FFF70BBB30
:101E700010B50E4C0A212046FFF7FFFA002120463C
:101E8000FFF7FDFA0A212046FFF7FBFA2046BDE8DE
:101E900010400021FFF7F7BA00011800000C0140C4
:101EA000000801400008004000040040002C0140F0
:101EB00038B501210420FEF74DFD01214020FEF739
:101EC00049FD5C20ADF8000001248DF80240482057
:101ED0008DF8030069464D48FEF755FB4120ADF8EB
:101EE00000008DF8024028208DF80300694648481C
:101EF000FEF749FB38BD08B501214020FEF72AFD59
:101F00004FF40070ADF8000001208DF80200282089
:101F10008DF8030069463D48FEF735FB08BD2DE905
:101F2000F0413C4D3A4F394C01264FF4007808B14E
:101F30002E7001E02878D0B110212046FEF779FB01
:101F4000E0B108212046FEF774FBB8B10421204619
:101F5000FEF76FFB90B101213846FEF76AFB0128BE
:101F60000CD041462046FEF764FB012806D0102124
:101F70002046FEF75EFB01282DD044E042F21070AF
:101F8000FFF799FD0020287010212046FEF751FB35
:101F9000B0B108212046FEF74CFBA0B10421204639
:101FA000FEF747FB88B101213846FEF742FB0128C6
:101FB0000DD041462046FEF73CFB012809D022E027
:101FC0000120BDE8F0810220FBE70320F9E70420AF
:101FD000F7E70520F5E708212046FEF72AFB012850
:101FE00011D104212046FEF724FB01280BD1012149
:101FF0003846FEF71EFB30B941462046FEF719FB76
:10200000012800D12E700020DBE7000000180140FD
:10201000000801404400002030B50C46054601216F
:1020200087B00846FEF79FFC01210420FEF792FCD2
:102030000320ADF8180004208DF81B0006A966489F
:10204000FEF7A1FAADF800400020ADF80450ADF85D
:102050000600ADF802004FF0804469462046FEF7C6
:1020600061FD00231A4603212046FFF781F803A8EB
:10207000FEF7F0FF0A20ADF8140003A92046FEF792
:1020800009FF01212046FEF7F6FF07B030BD4FF0F3
:102090008041888CB0F5704F02DBA0F57F40FF389F
:1020A00000228A84704730B50C46054687B001216E
:1020B0000420FEF758FC01210820FEF74BFCC0204D
:1020C000ADF8180004208DF81B0006A94248FEF761
:1020D0005AFAADF800400020ADF804503F4CADF87E
:1020E0000600ADF8020069462046FEF71BFD0023FE
:1020F0001A4603212046FFF73BF803A8FEF7AAFF84
:102100000A20ADF8140003A92046FEF7C3FE012102
:102110002046FEF7B0FFB8E7304924310888B0F513
:10212000704F02DBA0F57F40FF3800220A80704725
:1021300038B501211C20FEF70DFCC020ADF80000D1
:1021400048248DF8034069462548FEF71CFA042010
:10215000ADF800008DF8034069461F48FEF713FAFA
:1021600038BD2DE9F0411E4E002540213046FEF7D6
:1021700060FA1C4C002700B1277040213046FEF762
:1021800058FA2178084323D16420FFF794FC80217A
:102190003046FEF74EFA054640F6B830FFF78BFCA6
:1021A00035B102256780B04601274EF6602607E06C
:1021B0000125F7E7401C608027701420FFF77BFCA7
:1021C00040214046FEF735FA10B96088B042F1D39D
:1021D0002846BDE8F0810000000C014000080040E6
:1021E0000008014046000020F0B50E46074689B0C1
:1021F00001210820FEF7B7FB01210420FEF7AAFB0E
:1022000028208DF81F000125ADF81C5003208DF803
:102210001E0007A93D48FEF7B6F90024ADF80E40B0
:10222000ADF80C603A4EADF81240ADF8107003A94D
:102230003046FEF777FCADF80040ADF80640ADF84B
:102240000840ADF80240ADF8045069463046FEF74C
:1022500021FE32208DF818008DF81B5002208DF8D9
:1022600019008DF81A4006A8FEF7E3F801220321B1
:102270003046FEF715FF01213046FEF7FCFE09B09F
:10228000F0BD70B5234C224D2078000630D40221D9
:102290002846FFF71AF901281BD1207840060CD4F4
:1022A00000202070608001462846FFF7E2F8207881
:1022B000022140F04000207008E02846FFF7EEF8C9
:1022C00060802078002140F0800020702846FFF7D1
:1022D0001BF801212846FFF7F8F8012808D12078DB
:1022E000410605D5C143890608D06088401C60803E
:1022F0002846BDE870400321FFF7F3B84FF6FF71A1
:10230000618040F080002070F2E70000000801408A
:10231000000C00404A00002070B50C46054600F055
:1023200052FC782000F08FFC00F078FC0CB14020CB
:1023300000E0002000F087FC00F070FC284600F070
:1023400082FC00F06BFCBDE8704000F055BC70B53D
:10235000F94E002404F1B000C0B20021FFF7DCFF09
:1023600000210846FFF7D8FF00211020FFF7D4FF17
:1023700000F029FC782000F066FC00F04FFC4020C3
:1023800000F061FC00F04AFC5FF0000506EBC500C0
:10239000005D00F058FC00F041FC6D1CEDB2802D9A
:1023A000F4D300F029FC641CE4B2082CD2D370BD35
:1023B00030B40021E04B0A465FF0000003EBC0049C
:1023C000401CC0B262548028F8D3491CC9B2082905
:1023D000F2D330BCBBE738B501210420FEF7BAFACE
:1023E0001820ADF8000014208DF803000320D34C12
:1023F0008DF8020069462046FEF7C5F818212046F0
:10240000FEF72BF90021AE20FFF786FF00210846DA
:10241000FFF782FF00211020FFF77EFF0021402000
:10242000FFF77AFF00218120FFF776FF0021CF2000
:10243000FFF772FF0021A120FFF76EFF0021C820E7
:10244000FFF76AFF0021A620FFF766FF0021A82002
:10245000FFF762FF00213F20FFF75EFF0021D3203E
:10246000FFF75AFF00210846FFF756FF0021D5204D
:10247000FFF752FF00218020FFF74EFF0021D920F7
:10248000FFF74AFF0021F120FFF746FF0021DA2085
:10249000FFF742FF00211220FFF73EFF0021DB2063
:1024A000FFF73AFF00213020FFF736FF0021202000
:1024B000FFF732FF00210220FFF72EFF00218D20C1
:1024C000FFF72AFF00211420FFF726FFFFF770FF18
:1024D0000021AF20FFF720FF38BD20B1012805D132
:1024E0000021A72018E70021A620FBE7704710B5C0
:1024F00050B101280FD10021C020FFF70DFF0021AE
:10250000A020BDE8104007E70021C820FFF704FF26
:102510000021A120F5E710BD10B500218D20FFF7A7
:10252000FBFE00211420FFF7F7FE0021BDE810405C
:10253000AF20F1E610B500218D20FFF7EDFE002160
:102540001020FFF7E9FE0021BDE81040AE20E3E6D1
:1025500030B5CC0801F0070301259D40EBB2764D64
:1025600005EBC005C808285C0AB1184302E063EA1D
:102570000000C043285530BD2DE9FC4F151A4FF01F
:10258000000C5E1A009067468B464FF0FF30002D1E
:1025900002DD4FF0010102E003D14FF000018A4655
:1025A00002E08246C5F10005002E02DD4FF0010079
:1025B00002E003D14FF00000814602E08146C5F100
:1025C0000006B54201DD2C4600E03446601C4FF0A9
:1025D0000008019018E000BF00980BF0FF01C0B2A6
:1025E0000B9AFFF7B5FFAC443744A44504DD0098CF
:1025F000ACEB040C50440090A74201DD3F1BCB44E0
:1026000008F101001FFA80F801998845E4DBBDE874
:10261000FC8F2DE9F04F16460F46844600251446E0
:1026200002FB06F853E000BFA7EB04090CEB050B17
:1026300009F0FF010BF0FF000122FFF789FFACEB6F
:10264000050A09F0FF010AF0FF000122FFF780FFF1
:1026500007EB040909F0FF010AF0FF000122FFF770
:1026600077FF09F0FF010BF0FF000122FFF770FF79
:1026700007EB050B0CEB04090BF0FF0109F0FF0061
:102680000122FFF765FFA7EB050A0AF0FF0109F039
:10269000FF000122FFF75CFFACEB04090AF0FF0129
:1026A00009F0FF000122FFF753FF0BF0FF0109F0D3
:1026B000FF000122FFF74CFF6D1C05FB05F004FB3A
:1026C000040006FB1600002801DD641E6D1E60007C
:1026D00060434045A8DABDE8F08F2DE9F84F1C466D
:1026E0000F4681468A460090082B0DD0600700D027
:1026F000012000EBD40061084843C0B2203A804674
:1027000002F0FF0B002550E00620F7E7082C19D057
:102710000C2C1DD0102C1FD0182C48D108490BEBC5
:10272000CB0000BF01EB80004FF0000C465DF007CE
:1027300016D00A9A17E0000090000020000801401F
:10274000BA780008FF490BEB4B0001EB4000EBE7C8
:102750000BEB4B00FC49E5E7FC4901EB0B10E3E711
:102760000A9830B3002239464846FFF7F1FE7F1C35
:102770000CF1010C76080CF0FF0CFFB2BCF1080F55
:10278000D5D309F1010000F0FF09082C0AD0009907
:10279000A9EB0100B0EB540F04D10AF108008946FF
:1027A00000F0FF0A6D1C5746EDB24545AED3BDE8BB
:1027B000F88F0122D7E72DE9F8411E4615468846D5
:1027C0000446079F0BE03346414620460097FFF73B
:1027D00084FF082E0AD004EB5600C4B26D1C2A7880
:1027E000A2F120005E28EED9BDE8F881A41DE4B274
:1027F000F4E70246012000E050430B00A1F1010183
:10280000C9B2F9D170472DE9F84F0025DDE90A6911
:102810001F4692468B468046082E00D10225002492
:102820001CE0381B401EC1B20A20FFF7E2FFBAFBD2
:10283000F0F00A21B0FBF1F201FB1200CDF800909C
:1028400078B13030C2B205EB560101FB0480C0B252
:1028500033465946FFF741FF641CE4B2BC42E0D363
:10286000A5E705EB560101FB0480C0B233463022D8
:10287000EFE72DE9FF4F80461D460F46C3468A46C7
:10288000580700D0012000EBD50000FB05F900241B
:1028900047E0102D10D0182D13D0202D19D0402D29
:1028A00041D1AB49029801EB40204FF0000C065D8E
:1028B000F00714D00D9A15E0A649029801EB4010DC
:1028C000F3E70298A24900EBC000C83901EBC00051
:1028D000EBE79F490298803901EBC010E5E70D98BE
:1028E00018B3002239464046FFF732FE7F1C0CF138
:1028F000010C76080CF0FF0CFFB2BCF1080FD7D327
:1029000008F1010000F0FF08A8EB0B005946A842AF
:1029100004D10AF10800884600F0FF0A641C5746FB
:10292000A4B24C45B5D3BDE8FF8F0122DAE708B564
:102930000026894C91460F46804635461023324684
:1029400018218020CDF80090FFF793FF761CF6B297
:1029500046451AD1002614E00121002004EBC102F3
:1029600002EB000C135C401CC0B20CF8083C0828B9
:10297000F6D3491CC9B29029EFD3FFF7E8FC761CC7
:10298000F6B2B6EB071FE7D300266D1CEDB2102D93
:1029900000D100250121002004EBC10202EB000C54
:1029A000135C401CC0B20CF8083C0828F6D3491C44
:1029B000C9B29029EFD3FFF7CAFC002DC8D1BDE7FB
:1029C0002DE9FF4F81B00446009091460D464FF02F
:1029D00000088A46580700D0012000EBD30004907D
:1029E000002030E0002729E00E98002610F808C0EB
:1029F00008F101001FFA80F85FEACC7001D00F9A4D
:102A000002E00F9828B3002229462046FFF7A0FDD8
:102A10006D1C761CF6B24FEA5C0CEDB2082EEBD3BF
:102A2000641C0098E4B2211A494504D10AF1080057
:102A3000009C00F0FF0A7F1C5546FFB24F45D3D3E0
:102A40000BF10100C0B2049983468842CAD305B095
:102A500041E60122D8E710F1FF4F01D380F000409A
:102A600070472DE9FF4F89B00446DDE916659346AE
:102A70001046FFF7F0FF824603F00BF98146642110
:102A800090FBF1F00A27079099FBF7F090FBF7F124
:102A900007FB1100069000EB8000400003F0DAF81D
:102AA000804607986421484303F0D4F8514602F069
:102AB000C4FE414602F0BEFE03F0EBF80590484626
:102AC00003F0C8F8514602F0B8FE8046234902F0F0
:102AD000B7FE03F0DEF804904046214902F0B0FE54
:102AE00003F0D7F890FBF7F107FB1100594603906C
:102AF00004F1300004F1080804F1100A04F1180789
:102B000004F1200B04F12809029011F1FF4F334624
:102B1000009501D22B2200E02D2220460A99FFF7D2
:102B2000DCFDCDE9006508F0FF000123079A0A9952
:102B3000FFF769FECDE900650AF0FF000123069A60
:102B40000A990FE02E6C0008566E0008CA72000841
:102B50003E880008168600089000002000002041F2
:102B60000000C842FFF74FFECDE90065F8B201232F
:102B7000059A0A99FFF747FE00950BF0FF003346D0
:102B80002E220A99FFF7A9FDCDE9006509F0FF00A3
:102B90000123049A0A99FFF736FECDE900650298F1
:102BA0000123C0B2039A0A99FFF72DFE0DB0BDE8CC
:102BB000F04FFFF7CCBB000003200100A0F10100A3
:102BC000C0B2FAD1704710B52F4C10212046FDF746
:102BD00044FD08212046FDF740FDFFF7EDFF1021E1
:102BE0002046FDF73CFDFFF7E7FF08212046FDF7F3
:102BF00036FDBDE81040DFE710B5234C102120461C
:102C0000FDF72DFD08212046FDF727FDFFF7D4FF36
:102C10002046BDE810401021FDF71FBD10B51A4C2D
:102C200010212046FDF719FDFFF7C6FF08212046B9
:102C3000FDF713FDFFF7C0FF08212046FDF70FFD4C
:102C4000BDE81040B8E770B50F4E054600242806D1
:102C50004FF01001304602D5FDF7FFFC01E0FDF713
:102C6000FEFCFFF7A9FF08213046FDF7F6FCFFF751
:102C7000A3FF08213046FDF7F2FC6806641C050E30
:102C8000E4B2082CE3D370BD0008014070B50C46D7
:102C9000054602F0F7FBD02002F081FC02F025FC93
:102CA00050B9284602F07BFC02F01FFC204602F0DF
:102CB00076FC02F01AFC18B102F0FDFB012070BD99
:102CC00002F0F9FB002070BDBC2801D3012110E007
:102CD000622801D302210CE02A2801D3032108E055
:102CE000142801D3042104E00A2801D3052100E0BF
:102CF00006211A20CAE710B504464FF47A708442C0
:102D000001D9044602E0042C00D20424B0FBF4F004
:102D1000401EC1B21920FFF7B9FF6008BDE810409E
:102D2000D2E710B5044602F0ADFBD02002F037FC2C
:102D300002F0DBFB204602F032FC02F0D6FB02F090
:102D4000A1FBD12002F02BFC02F0CFFB002002F00F
:102D50004FFC044602F0AFFB204610BDC006010E3A
:102D60001C2093E7C006010E1B208FE708B5012148
:102D70000846FDF7EFFD01210420FDF7EBFD4FF4C0
:102D80000040ADF8000010208DF8030003208DF8FE
:102D9000020069467848FDF7F6FB01217748FDF708
:102DA0007DFC77490020086002F053FB80216B20F6
:102DB000FFF76CFF7348FEF77EFE00216B20FFF7E4
:102DC00065FF0320FFF7CEFF0020FFF7C7FF32208B
:102DD000FFF791FF00213820FFF758FF00216A20FC
:102DE000FFF754FF00212320FFF750FF80213720F9
:102DF000FFF74CFF7520FFF794FF682801D00120F2
:102E000008BD01216B20FFF741FF00216C20FFF777
:102E10003DFF3220FFF76FFF002008BD2DE9F04194
:102E20001D4614460F46064602F02CFB7006000EA7
:102E300002F0B5FB02F059FB20B102F03CFB01208F
:102E4000BDE8F081384602F0AAFB02F04EFB02F02A
:102E500019FB012000EB4600C0B202F0A0FB02F01B
:102E600044FB09E0012C0DD05FF0010002F0C0FB33
:102E7000641E05F8010BE4B2002CF3D102F01BFB39
:102E80000020DDE70020F1E708B56B460222412172
:102E90006820FFF7C3FFBDF8000040BA00B202F09F
:102EA000E7FE0022384B02F066FE384A384B02F04B
:102EB00049FD02F02EFF374902F0C2FC02F0E9FEA4
:102EC00000B208BD7CB514460D4606466B46062288
:102ED00043216820FFF7A2FF00280BD1BDF80010A6
:102EE00049BA3180BDF8021049BA2980BDF80410F2
:102EF00049BA21807CBD7CB514460D4606466B461A
:102F000006223B216820FFF789FF00280BD1BDF87E
:102F1000001049BA3180BDF8021049BA2980BDF8C5
:102F2000041049BA21807CBD2DE9F0411E461546AA
:102F30000F46044602F0A6FA6006000E02F02FFBD0
:102F400002F0D3FA60B9384602F029FB02F0CDFA5C
:102F500000240BE0305D02F022FB02F0C6FA18B14B
:102F600002F0A9FA01206BE7641CE4B2AC42F1D391
:102F700002F0A1FA002063E70008014000023000DF
:102F8000BC012142A086010000407540A4703D0AAA
:102F9000D74342400000C842F8B5F94C01462246EA
:102FA00094F82460D2E9000200235D1E56B179B185
:102FB000022111E0C17B10786B460122FFF7B4FFBC
:102FC00068B90EE0A67A56B111B1617C61B902E030
:102FD0008DF80030EEE701218DF80010EAE7284671
:102FE000F8BD9DF8000060740020F8BD38B50024DD
:102FF000E34D18E02968CA7AA24212D0497DA14265
:103000000FD000786B4601222146FFF707FF10B171
:103010004FF0FF3038BD9DF800202146D9A003F0C5
:1030200007F8641CE4B268680179A142E2D8002084
:1030300038BD0B46D24930B40A684FF0FF34D57A18
:10304000854206D0527D824203D049680A79824285
:1030500002D8204630BC70470C780146204630BC70
:103060000122FFF7DBBE38B5C54C054694F82300B6
:10307000A84201D1002038BD0DB1302000E0002071
:103080008DF80000A07C28B19DF8000040F00200FF
:103090008DF8000094F8220028B19DF8000040F05F
:1030A00080008DF8000020686B460122017D606879
:1030B0000078FFF739FF10B14FF0FF3038BD84F8CA
:1030C0002350D7E7F8B5054610F0700F4FF0000613
:1030D00001D0012004E015B18DF8006002E040202D
:1030E0008DF80000A64C6B4601222068817C606848
:1030F0000078FFF719FF4FF0FF3760BB9DF8000025
:1031000020F0400020738DF80060680602D404208F
:103110008DF80000A80605D49DF8000040F00200DC
:103120008DF80000E80605D49DF8000040F001008D
:103130008DF80000280705D49DF8000040F0380005
:103140008DF8000020686B460122C17C6068007821
:10315000FFF7EAFE10B1A6723846F8BD25B1082D7A
:1031600002D00020FFF77FFFA57226754CF2503089
:10317000FEF7A1FC0020F8BDF8B5814C0546A07C07
:10318000A84201D10020F8BD7D484FF0FF3640F63F
:10319000B837D0E900106B46097900784FF001028A
:1031A00035B3FFF73BFE70BB9DF800006B4620F087
:1031B00020008DF800002068012201796068007805
:1031C000FFF7B2FEF8B93846FEF775FC02208DF81D
:1031D000000094F8220078B382202BE020686B4630
:1031E0000122017D60680078FFF79EFE58B92EE04D
:1031F000FFF714FE38B9A07AC0079DF8000003D08D
:1032000040F0200002E00CE020F020008DF80000EB
:1032100020686B460122017960680078FFF784FE20
:1032200008B13046F8BD3846FEF745FC94F8220058
:1032300000B180208DF8000094F823000028CDD044
:103240009DF8000040F030008DF80000C6E7A5743E
:1032500098E7F8B54A4C4FF0FF36A07A00287DD0A9
:1032600000258DF8005020686B460122C17B606804
:103270000078FFF759FE002870D120686B460122C4
:10328000417960680078FFF74FFE002866D120681A
:103290006B460122017960680078FFF745FE00283F
:1032A0005CD194F824004CF25037D8B30C208DF840
:1032B000000020686B460122017960680078FFF702
:1032C00033FE00287BD13846FEF7F5FBC0208DF891
:1032D0000000A07AC00702D0E0208DF8000020682E
:1032E0006B460122017960680078FFF71DFE002817
:1032F00065D1607C18B102208DF8000001E08DF8E6
:10330000005020686B460122C17B60680078FFF79F
:103310000BFE18BB8DF8005020686B464179606841
:10332000007847E0FFE704208DF8000020686B4636
:103330000122017960680078FFF7F6FD70B9A07C82
:1033400090B9A07AC0070FD05FF060008DF8000040
:1033500020686B4601796068007800E02FE0012268
:10336000FFF7E2FD58BB01E04020EFE73846FEF7EB
:10337000A2FB607C70B101208DF800000CE0000021
:1033800050000020252335783A20252335780D0A72
:10339000000000008DF8005020686B460122C17BC0
:1033A00060680078FFF7C0FD48B92068FF4B41799D
:1033B000606800780122FFF7B7FD002800D0304692
:1033C000F8BD2DE9F041F94C0025103C20F0010139
:1033D00094F8240010B10020BDE8F081A07A4FF0ED
:1033E000FF3668B10840277C2074884200D03546FB
:1033F00041B10120FFF7D0FDFFF72BFF38B1277453
:103400003046E9E7207D00B10120FFF7C5FD2846E1
:10341000E2E738B5E54C4FF0FF35103CA17A31B307
:10342000BC2801D3012010E0622801D302200CE067
:103430002A2801D3032008E0142801D3042004E043
:103440000A2801D3052000E006208DF80000E07A6C
:103450009DF80010884201D1002038BD20686B46DD
:103460000122817860680078FFF75EFD08B1284688
:1034700038BD9DF80000E072EEE72DE9F8430546FF
:103480004FF0FF39282845D8C84C07270026103CA4
:103490007DB10120FFF7E7FD20208DF800004FF0FF
:1034A0000108012D17D0052D18D88DF801800520B1
:1034B0001FE00020FFF7D7FD8DF800608DF8017048
:1034C00020686B460222817C60680078FFF72CFD43
:1034D00000BB267529E08DF80160E8E7142D04D8BB
:1034E00002208DF801000A2003E003208DF801007E
:1034F0001420FFF78EFF9DF801006B4607EB80104C
:103500008DF8010020680222817C60680078FFF756
:103510000BFD10B14846BDE8F8830820A072267361
:1035200084F814800020FFF74CFF0020F3E7F8B583
:103530009E4D0446103D4FF0FF37A87A48B395F8EA
:10354000240030BB287D4FF47A7648B164B1282C32
:1035500003D8E0B2FFF791FF26E00020FFF78DFFD0
:10356000042C05D2042406E00020FFF786FFF9E7CB
:10357000B44200D93446B6FBF4F0401E8DF800008A
:1035800028686B460122417868680078FFF7CCFC18
:1035900008B13846F8BD9DF80000401CB6FBF0F0BD
:1035A000E8814008FFF735FF0020F8BD38B57F4CB3
:1035B0004FF0FF35103CA17A19B3022806D0042839
:1035C00006D008280ED010281BD10DE0002000E006
:1035D00008208DF80000607A9DF80010B0EBD10F44
:1035E00004D005E01020F4E71820F2E7002038BDF1
:1035F00020686B460122C17960680078FFF794FC6F
:1036000008B1284638BD9DF80000C0086072EDE79B
:1036100038B5664C4FF0FF35103CA17A31B3FA282B
:1036200009D0B0F5FA7F08D0B0F57A7F0FD0B0F5A9
:10363000FA6F1BD10DE0002000E008208DF800009B
:10364000207A9DF80010B0EBD10F04D005E01020D7
:10365000F4E71820F2E7002038BD20686B4601220D
:10366000817960680078FFF75FFC08B1284638BDB3
:103670009DF80000C0082072EDE72DE9FC414B4C9D
:103680008020103C8DF8000020686B460122817C70
:1036900060680078FFF748FC4FF0FF37002832D110
:1036A0004348FEF708FA00258DF8005020686B4665
:1036B0000122817C60680078FFF736FC002871D118
:1036C00020686B460622817D60680078FFF7A6FBC4
:1036D000002867D19DF805009DF80310C007400F32
:1036E00001F0010140EA41019DF801004FF001069F
:1036F00000F00100014309D0012905D0022916D0AC
:103700002CA002F095FC4DE0E67411E020686B46B9
:103710000122C17860680078FFF780FB002841D162
:103720009DF8000010F00F0020D0042822D0E5748E
:10373000FF2004F80A0F4FF6FF7104F8020C04F89A
:10374000010C6070A180A0712072A670267665764B
:10375000E572A572E56025616561A576E576A583CC
:103760004FF4FA60FFF754FFE0B907E01B4802F09E
:103770005FFC17E01AA002F05BFCC5E70220FFF730
:1037800015FF78B92A20FFF744FE58B93220FFF719
:10379000CEFE38B90020FFF714FE18B90020FFF75D
:1037A000EBFC10B13846BDE8FC8129E06000002048
:1037B000A0860100556E737570706F727465642019
:1037C000736F6674776172652070726F647563746D
:1037D000207265762025642E0A000000908A000879
:1037E00048616C662073656E736974697669747973
:1037F000207061727420666F756E642E0A0000007E
:103800000020FFF75FFC0020CDE770477CB5044641
:10381000F7484FF0FF35817A11F0700F08D001683A
:1038200040686B46097B00780622FFF7F7FA08B17B
:1038300028467CBDBDF8000040BA2080BDF80200DB
:1038400040BA6080BDF8040040BAA08000207CBD72
:103850007CB50446E6484FF0FF35817A090708D564
:10386000016840686B46497B00780622FFF7D6FA6C
:1038700008B128467CBDBDF8000040BA2080BDF8E4
:10388000020040BA6080BDF8040040BAA080002069
:103890007CBDF8B5D64C06464FF0FF35A07A40B156
:1038A00020686B460222817B60680078FFF7B6FAD9
:1038B00008B12846F8BDBDF80000646840BA05B2FA
:1038C000E08802F0D0F90746B4F9080002F0C2F926
:1038D0000446284602F0BEF9214601F0ABFF394606
:1038E00001F0E4FFC34901F053FF102102F01EF87C
:1038F00002F0CFF930600020F8BD2DE9FC41040052
:103900004FF0FF3862D0206820B9606810B9A06815
:1039100000285CD0B64D03226B46686811460078DB
:10392000FFF77CFAF0BB9DF80010082000EB1111A6
:1039300001F00F029DF801109DF8023000EB11110B
:1039400000EB1310236840325B0093FBF2F217B2D6
:10395000626801F00F015200403192FBF1F10EB2AA
:10396000A16800F00F004900403091FBF0F004B274
:10397000686806226B4600781146FFF74FFA88B94F
:10398000BDF80000BDF8021040BABDF8042038446C
:10399000030A49BA52BA8DF80030314422448DF8F6
:1039A000010000E012E0080A8DF80200100A8DF80C
:1039B00004008DF803108DF80520686806226B4618
:1039C00000781146FFF7B0FA002800D04046EAE63A
:1039D0008749097A39B1012907D002290AD0032978
:1039E0000BD0002103E0FA2101E04FF4FA710180CD
:1039F000002070474FF47A71F9E74FF4FA61F6E767
:103A00007B494A7A42B1012A08D0022A0FD0032A00
:103A10000FD04FF0FF307047022200E00422027006
:103A2000C97C11B11106C90D017000207047082230
:103A3000F5E71022F3E76E49C97A072913D2DFE8C8
:103A400001F01204060A0C0E1000BC2100E06221F5
:103A50000180002070472A21FAE71421F8E70A21A3
:103A6000F6E70521F4E70021F2E7614991F8242007
:103A700012B14FF0FF307047C989018000207047B4
:103A800000210180481E70474FF0FF3070475849B1
:103A9000097A41B1012908D002290AD003290AD0A4
:103AA0004FF0FF307047544900E054490160002056
:103AB00070475349FAE75349F8E74D494A7A42B10A
:103AC000012A09D0022A11D0032A12D04FF0FF3068
:103AD00070474FF4804201E041F69C720280C97C3D
:103AE00011B1C2F34E010180002070474FF48052A3
:103AF000F4E74FF40062F1E73D49097C01700020D2
:103B000070473B49897A01B101210170002070475B
:103B100038B5374A04464FF0FF35907A40B1106807
:103B20006B46017C506802220078FFF777F908B1F4
:103B3000284638BDBDF8000040BA2080002038BDBE
:103B40002DE9FE4F81462A488846002490F824102B
:103B50001E4625464FF0FF3BD9BB00213170817ACC
:103B6000B9B3017CA9B34A0600D502248A0601D55F
:103B700004F10204CA0601D504F10204090700D5C4
:103B8000A41D016882464068897A6B46007802224B
:103B9000FFF744F9E8B9BDF8000047BAA7427BD364
:103BA000DAF804004188B7EB510F13D9DAF80010A6
:103BB00000786B46497C0122FFF730F948B99DF83F
:103BC0000000C00606D5FFF744FB6FF00100BDE81A
:103BD000FE8F0AE0DAF80010DAF804006B46C97AC2
:103BE00000782246FFF71AF970B15846EFE7000057
:103BF0005000002000000C420000034300008342FC
:103C00003333034233338341B7FBF4F00C99A0F113
:103C1000010008704FF000003070ECB39AF81010FB
:103C200050460A07694613D5BDF80020062552BA4A
:103C3000A8F80020BDF8022052BAA8F80220BDF86A
:103C4000042052BAA8F80420327842F008023270F8
:103C5000A5420CD0027C520609D54A19AD1C128827
:103C600052BAA9F80020327842F040023270A542E0
:103C70000CD0027C920609D54A19AD1C128852BAA2
:103C8000A9F80220327842F020023270A5420ED00C
:103C90009AF81000C00600E009E008D5481900882D
:103CA00040BAA9F80400307840F0100030700020CD
:103CB0008DE72DE9F843FD4C0646174694F824009D
:103CC00089464FF0FF3888B3A07A78B320686B46F6
:103CD0000222817A60680078FFF7A0F830BBBDF857
:103CE000000045BAB54202D2002038701EE060687C
:103CF0004188B5EB510F10D9216800786B46497C9B
:103D00000122FFF78BF888B99DF80000C00604D5A2
:103D1000FFF79FFA6FF0010008E42068F2B24B460B
:103D2000C17A60680078FFF779F808B14046F3E798
:103D3000B5FBF6F0401E38700020EDE7DB4981F856
:103D40002200002070472DE9FE4F05460120D74E86
:103D50008DF800004FF000088DF8018030680C46A7
:103D60001746817C70686B4602220078FFF7DCF80A
:103D70004FF0FF3A00287DD1DFF834B35846FDF705
:103D80009AFE8DF8008030686B460122C17B706816
:103D90000078FFF7C9F80028EDD130686B460122A2
:103DA000417970680078FFF7BFF80028E3D13068E8
:103DB0006B460122817C70680078FFF7B5F8002817
:103DC000D9D130686B460122C17D70680078FFF759
:103DD000ABF80028CFD130686B46012201797068BA
:103DE0000078FFF7A1F80028C5D14FF00C098DF835
:103DF000009030686B460122017970680078FFF707
:103E000093F8002836D143F69820FDF754FEB06AA7
:103E10006B460122407A8DF8000030688178706826
:103E20000078FFF781F8002824D1B06A6B460122A0
:103E3000007A8DF800003068417870680078FFF7EC
:103E400073F8002875D1B06A807A0FB140F0E000B5
:103E50008DF8000030686B46012281797068007827
:103E6000FFF762F8002864D12FB1B06AC07A40F041
:103E7000E00001E04AE018208DF8000030686B4651
:103E80000122C17970680078FFF74EF8F0BB17B1D6
:103E90005846FDF710FE40208DF8000030686B4654
:103EA0000122017970680078FFF73EF870BB782036
:103EB0008DF8000030686B46012241797068007807
:103EC000FFF732F810BB4CF25030FDF7F4FD8DF8DF
:103ED0000080306847466B4641797068012200785F
:103EE000FFF722F890B931687068B046897A007897
:103EF0006B460222FEF792FF40B9BDF80000AF60AA
:103F000040BAB0FBF9F0C6B26F6000E011E02F607C
:103F1000A76067602760002739E000BFD8F800106D
:103F2000D8F804006B46C97A00780C22FEF776FFB9
:103F300008B150464BE6BDF80000236840BA00B215
:103F4000BDF80210BDF804201844206049BA60682A
:103F500009B20844606052BAA06812B21044A0606E
:103F6000BDF80810BDF8060049BA40BA0AB22B687D
:103F700000B2BDF80A1018442860686849BA1044B5
:103F80006860A86809B208447F1CFFB2A860B74205
:103F9000C4D328688322C117090441EA10410004F0
:103FA000002301F0A9FB3246002301F0A5FB2860A5
:103FB00068688322C117090441EA10410004002304
:103FC00001F09AFB3246002301F096FB6860A86876
:103FD0008322C117090441EA10410004002301F0C3
:103FE0008BFB3246002301F087FBA86020684FF46A
:103FF0000065C117090441EA104100042A46002364
:1040000001F07AFB3246002301F076FB2060606805
:104010002A46C117090441EA10410004002301F0B7
:104020006BFB3246002301F067FB6060A0682A4604
:10403000C117090441EA10410004002301F05CFBB0
:104040003246002301F058FBA060002802DDA0F5F5
:10405000803001E000F58030A0600020B7E538B581
:10406000124C94F8241081421ED0002528B394F8F5
:104070002500F8B10020FEF78FFF0020FFF77CF845
:10408000E08CFFF754FA8DF8005060686B4601220F
:1040900000782321FEF748FF012084F82400FEF772
:1040A0007BFF00BFFFF7D5F8002038BD500000208F
:1040B000400D03004FF0FF30F7E70020FEF76CFFE4
:1040C000207C8DF8000060686B4601220078232177
:1040D000FEF72AFF84F82450E4E72DE9F047FB4C73
:1040E00082468AB094F824000F4620B10020FFF7E2
:1040F000B6FF012600E0002607A8FFF769FC06A826
:10410000FFF77EFC09A8FFF796FC08A8FFF7ADFCB7
:1041100094F80A9094F81080002500223946504601
:10412000FFF711FE10B16D1C022DF6DB022D1AD027
:104130000025012203A96846FFF705FE10B16D1C9A
:10414000022DF6DB022D0ED003A9384600F04FFBFE
:10415000C7B26946504600F084FB10F0FF0F4FF0E5
:10416000000502D002E0002503E001250FB945F06B
:104170000205FF2020726072E0724FF6FF71E1814C
:10418000A072207401202073BDF81C00FFF740FAD4
:104190009DF81800FFF70AFABDF82400FFF739F977
:1041A000BDF82000FFF7C3F94846FEF78BFF4046F5
:1041B000FFF707F916B10120FFF751FF0AB02846B3
:1041C000BDE8F087F8B516000D464FF0FF371FD059
:1041D000BE4CA17AE1B1010A8DF80010C0B28DF891
:1041E0000100411960684289914211D82168007824
:1041F0006B46097E0222FEF797FE48B92068EAB2B4
:104200003346417D60680078FEF78EFE002800D0BE
:104210003846F8BDF8B516000D464FF0FF371FD0F1
:10422000AA4CA17AE1B1010A8DF80010C0B28DF854
:104230000100411960684289914211D821680078D3
:104240006B46097E0222FEF76FFE48B92068EAB28B
:104250003346417D60680078FEF7E0FD002800D01D
:104260003846F8BD2DE9FF4FDFF86082064685B07D
:1042700098F8250015460F464FF0FF39B0BBAFB395
:10428000002420E0301B102800DD102080B283467F
:104290003A19014692462046FFF794FF30BB6A4622
:1042A00059462046FFF7B6FF00BB50465A466946BE
:1042B00001F061FA20B16FF0010009B0BDE8F08FA4
:1042C00004EB0B0084B2B442DCD3280A8DF8100052
:1042D0008DF81150D8F80000444604AB817ED8F820
:1042E000040002220078FEF71FFE08B14846E4E70A
:1042F000012084F825000898E0840020DDE7734958
:1043000091F824100170002070474FF0FF30704783
:104310004FF0FF3070474FF0FF3070472DE9F84FF6
:104320006A4C0F4604F1160115004FF0FF3B8A4618
:104330004FF000094FF0010878D0B0F5FF5F01D9C8
:10434000FF2605E0202801D2012601E0C0F3471630
:1043500007B90127282D6BD8607DF0B994F82400A7
:1043600028B10020FFF77BFE84F8208001E084F86C
:1043700020905046FFF72CFB54481830FFF740FBC5
:1043800052481A30FFF757FB50481C30FFF76DFBBF
:10439000A07AA0774D48217CC1770020FEF7FCFD74
:1043A0000020FFF76AF88DF8009020686B46012224
:1043B000817860680078FEF7B7FD002838D140208A
:1043C0008DF8000020686B460122C17B6068007890
:1043D000FEF7AAFD58BB8DF800608DF801702068CB
:1043E0006B460222017A60680078FEF79DFDF0B905
:1043F00041F28830FDF75FFB607A072606EBC000CC
:104400008DF8000020686B460122C1796068007851
:10441000FEF78AFD58B920208DF80000012D08D044
:10442000052D0AD840468DF801800DE01DE01FE003
:1044300049E048468DF8019006E0142D01D802208D
:1044400000E003208DF80100C0B206EB80108DF86B
:10445000010020686B460222817C60680078FEF7CC
:1044600063FD28B984F8158027E000200A5C3AB380
:10447000FF2020726072E0724FF6FF71E181A0723E
:10448000207484F80C80A07FFEF71CFEE08AFFF702
:10449000BFF8207EFFF78AF8608BFEF7BAFFA08B8B
:1044A000FFF745F8E07FFEF78CFF94F8200010B18D
:1044B0000120FFF7D4FD84F815900020BDE8F88FA7
:1044C000401C0C28D2D35846F8E7000050000020CA
:1044D00010B588B0694604A8FFF7FFFD032802D095
:1044E000012008B010BD07A8FFF7D1FA049801F029
:1044F000B1FB07990C4601F0A3F901F0CAFB049047
:10450000059801F0A7FB214601F09AF901F0C1FBE3
:104510000590069801F09EFB214601F091F901F00B
:10452000B8FB069004A800F0E2FA03A8FFF7C5FA6A
:10453000BDF80C000099414300910199414301915C
:10454000029941436846029100F035FB0020C8E71C
:1045500090F90010002902DD4FF00000704702DAE8
:104560004FF00400704790F90110002902DD4FF070
:104570000100704702DA4FF00500704790F9020021
:10458000002802DD4FF00200704702DA4FF006000B
:1045900070474FF00700704700B50246FFF7D8FF9D
:1045A0000346D01CFFF7D4FF43EAC003901DFFF77A
:1045B000CFFF43EA801080B200BD10B500F049FF84
:1045C000FFF75BF808B10A2010BD7820FEF77AFDEE
:1045D00010F0FF0F01D0012010BD7820FEF7F1FE92
:1045E00010F0FF0F01D0022010BD6420FEF79FFFE6
:1045F00010F0FF0F01D0032010BD00F0F5F910F00E
:10460000FF0F01D0042010BDED48FFF7C5FF00F0FB
:10461000F3F910F0FF0F01D0052010BD40F2731028
:1046200000F041FD10F0FF0F01D0062010BD642006
:1046300000F02CFB10F0FF0F01D0072010BDFFF79A
:1046400047FF08B1082010BD0120FFF708FD10F05A
:10465000FF00F8D0092010BD2DE9F74F8EB00CA94E
:1046600002A8CDE900010BAB03AA09A907A800F035
:1046700029FE10B1012011B020E6BDF80800C005E8
:104680007ED5039801F0E6FA6FF01D04214601F093
:104690004DF98246049801F0DDFA214601F046F911
:1046A0008146059801F0D6FA214601F03FF980468F
:1046B000069801F0CFFA214601F038F905460121AC
:1046C000504601F033F90646414601F0B9F8044678
:1046D0004FF04041484601F0B3F80746294601F043
:1046E000AFF8214601F054F801F000FB01F068FF3B
:1046F0004FF0663B5A46B34B01F0CBF901F009FB92
:104700000E9908600121404601F010F941460090E1
:1047100001F096F804463846494601F091F82146E2
:1047200001F088F84FF07E5101F032F801F0DEFA26
:1047300007460C463046494601F082F806462946AF
:10474000009801F07DF8314601F022F801F0CEFA30
:104750003A46234602F084F95A469A4B01F099F9F9
:1047600001F0D7FA0F9908602946084601F068F869
:1047700007464146084601F063F80646494600E010
:1047800033E0084601F05CF804465146084601F063
:1047900057F8214600F0FCFF314601F04BF839464E
:1047A00001F048F801F0A2FA06460C4629465046A8
:1047B00001F046F805464146484601F041F82946D1
:1047C00000F0E6FF012101F0B1F801F08FFA324666
:1047D000234602F045F95A467A4B01F05AF901F0A6
:1047E00098FA10990860002045E7022043E72DE978
:1047F000FE4F07460E460025684600F090F800245C
:104800006FF00F0AE8464FF0010900BF57F8240087
:1048100056F82410401A00D5404201F01BFA5146C8
:1048200001F084F858F8241011F0FF4F0BD001F07C
:104830003DF84FF07E5100F0FDFF634920F000404D
:10484000884205DC07E0614908446149884202D397
:1048500009FA04F00543641C032CD7DB2846BDE8A5
:10486000FE8F2DE9F84F8146554888462C380025A3
:1048700040686B46032200780D21FEF7CFFA08B19D
:1048800007201BE69DF80000002400F01F008DF8B3
:1048900000009DF801006FF00F0B00F01F008DF875
:1048A00001009DF802006E4600F01F008DF8020026
:1048B0004FF0010A59F8241058F82400081A00D5BE
:1048C000404201F0C7F9594601F030F80746305D23
:1048D000C0B1404802E0404900F0B2FF315D491EDE
:1048E00011F0FF013155F6D10146384600F0DEFFE8
:1048F0004FF07E5100F09EFF334920F00040884287
:1049000005DC07E035483844B0F1D97F02D90AFA0E
:1049100004F00543641C032CCCDB2846CEE52DE9CE
:10492000FE430646264801AB2C38042240680D2180
:104930000078FEF773FA10B10720BDE8FE839DF8FA
:1049400004101C2000EAD1029DF80710DFF89090B7
:10495000C1F301131A438DF800209DF80520C1F31F
:10496000810300EAD2021A438DF801209DF8062047
:1049700001F0030100EAD20008430024194F8DF82A
:104980000200A0466D46285D10B146F824900AE06A
:1049900046F824800DE000BF56F82400394600F0A8
:1049A0004FFF46F82400285D401E10F0FF002855F8
:1049B000F2D1641CE4B2032CE5D30020BDE7000073
:1049C0007C00002066A64C40295C0F3E666666C1EE
:1049D0009A99D9000000C84154E3853F0000E0BE29
:1049E0007B14AE3E1D5A843FC8234FF48062FE49BB
:1049F00040F6F630FFF736BC2DE9FF410446FBA038
:104A000004F0030300680290F9A000680390F9A085
:104A10000668F9A0056802A8C15C8DF80010C4F30F
:104A2000C101425C8DF80120C4F38112805C8DF8D5
:104A3000020003A8C35C8DF80430415C8DF80510BA
:104A4000805C8DF806006A46032140F22640FFF79D
:104A5000B9FB4FF0FF37E0BB01AA032140F22A4027
:104A6000FFF7B0FBA8BBCDE9006560070BD59DF84B
:104A7000000040F001008DF800009DF8040040F0B7
:104A800001008DF80400A0060BD59DF8010040F050
:104A900001008DF801009DF8050040F001008DF83F
:104AA0000500E0050BD59DF8020040F001008DF8EF
:104AB00002009DF8060040F001008DF806006A46ED
:104AC00003214FF48860FFF77DFB10B901AA032191
:104AD00000E004E040F23140FFF774FB18B13846C3
:104AE00004B0BDE8F081C54804810020F8E7F8B5BE
:104AF000C249098901F0030250F822404A0701D552
:104B0000C4F10004C1F3C1028B0650F8222001D584
:104B1000C2F10002C1F3811350F82330C80500D55B
:104B20005B42B74984FB0140850045EA947082FBF3
:104B30000142A40F44EA820483FB0121950F45EA58
:104B40008105010E8DF80010010C8DF80110010A8D
:104B50008DF802108DF803006A4604214FF474703A
:104B6000FFF730FB4FF0FF3688B9200E8DF80000BC
:104B7000200C8DF80100200A8DF802008DF803400A
:104B80006A4604214FF47570FFF71CFB08B13046EC
:104B9000F8BD280E8DF80000280C8DF80100280AB9
:104BA0008DF802008DF803506A4604214FF47670A8
:104BB000FFF708FBF8BD2DE9FF41044603A8FEF707
:104BC0007CFFBDF80C004FEA50414FEAC0338B48E0
:104BD000028902F00300550754F8200001D5C0F106
:104BE0000000C2F3C105960654F8255001D5C5F161
:104BF0000005C2F38116D20554F8264000D5644260
:104C0000A0FB0367C21702FB037200FB01208200B6
:104C100042EA9670A5FB0367EA1702FB037205FBE5
:104C20000122950045EA9672A4FB0367E51705FB90
:104C3000037304FB01318B0043EA9671030E8DF878
:104C40000030030C8DF80130030A8DF802308DF826
:104C50000300100E8DF80400100C8DF80500100AEA
:104C60008DF80600080E8DF80800080C8DF8090074
:104C7000080A8DF80A008DF807208DF80B106A4697
:104C80000C214FF42570FFF79DFA29E730B5044653
:104C90005CA285B007CA8DE807004FF0FF35C82C2D
:104CA00016D8C820B0FBF4F1491E080A8DF80C0094
:104CB0008DF80D1003AA022140F21620FFF782FAA8
:104CC00030B96A460C2140F6C120FFF77BFA10B1DB
:104CD000284605B030BD494884810020F9E747499E
:104CE00089890180002070472DE9FC410546400775
:104CF0004FF0FF3676D0B1F5C86F73D8084600F094
:104D0000B2FF434900F0D2FD074601A8FEF778FE46
:104D10009DF80400022806D004280DD008282ED0C3
:104D200010285FD134E00E21384600F0FFFD00F07E
:104D3000C9FF84B2374907E00D21384600F0F6FD7F
:104D400000F0C0FF344984B2384600F079FD00F02D
:104D5000B9FF210A8DF8001080B28DF80140010AD8
:104D60008DF802108DF80300E8076C4620D022462B
:104D700002214FF4EA70FFF725FA98BB11E00C21ED
:104D8000384600F0D3FD00F09DFF84B22349DBE7F5
:104D90000B21384600F0CAFD00F094FF84B2204990
:104DA000D2E7A21C02214FF49270FFF70BFAC8B9A8
:104DB000A8070DD56A4602214FF4EC70FFF702FAFE
:104DC00080B9A21C02214FF49470FFF7FBF948B997
:104DD000680731D56A4602214FF4EE70FFF7F2F909
:104DE00000B91FE025E00000DD8A00084CCD6C0012
:104DF0000CC92C00365676002646660010050020A9
:104E000009E3CA02FEF2ABC4AAF1DFDFBBAFDFDF0A
:104E100000004843000040460000C04500004045F7
:104E20000000C044A21C02214FF49670FFF7CAF99B
:104E300010B13046BDE8FC810020FBE708B5002139
:104E40008DF80010C10702D030218DF800108107C5
:104E500005D59DF8001041F00C018DF800104007B9
:104E600005D59DF8000040F003008DF800006A466B
:104E700001214FF4A470FFF7A5F908BD08B560B192
:104E8000042800D90420401E8DF800006A46012144
:104E900040F24F10FFF796F908BD0120F3E7052116
:104EA000B0FBF1F008B5010A8DF800108DF8010093
:104EB0006A4602214FF4EF70FFF784F908BD05211F
:104EC000B0FBF1F008B5010A8DF800108DF8010073
:104ED0006A4602214FF4ED70FFF774F908BD4FF4F4
:104EE0007A7290FBF2F008B54843010E8DF800107D
:104EF000010C8DF80110010A8DF802108DF80300E5
:104F00006A4604214FF4AE70FFF75CF908BD052135
:104F1000B0FBF1F008B5010A8DF800108DF8010022
:104F20006A4602214FF4AD70FFF74CF908BD052128
:104F3000B0FBF1F008B5010A8DF800108DF8010002
:104F40006A4602214FF4AC70FFF73CF908BD38B552
:104F500004004FF0FF3506D06A4604214FF4587024
:104F6000FFF758F908B1284638BD00989DF803109E
:104F700000BA20F0FF0008432060002038BD08B5CB
:104F8000010E8DF80010010C8DF80110010A8DF84A
:104F900002108DF803006A4604214FF45870FFF7A1
:104FA00011F908BD38B504004FF0FF3506D06A4648
:104FB00004214FF47170FFF72DF908B1284638BD70
:104FC00000989DF8031000BA20F0FF00084300EBA2
:104FD000800080002060002038BD1421B0FBF1F07B
:104FE00008B5010E8DF80010010C8DF80110010AB2
:104FF0008DF802108DF803006A4604214FF4717099
:10500000FFF7E0F808BD08B560B120208DF800007A
:1050100028208DF8010030208DF8020038208DF80E
:10502000030004E0A3220421684600F092FB6A46D4
:10503000042140F69E20FFF7C5F8FEF70AF908BDE7
:1050400008B560B1C0208DF80000C2208DF80100C5
:10505000C4208DF80200C6208DF8030004E08B22E6
:105060000421684600F075FB6A46042140F698204A
:10507000FFF7A8F8FEF7EDF808BD0EB54FF49763FB
:1050800020B1E4A207CA8DE8070006E0E4A2D2E955
:10509000001092680091CDE901026A460921184684
:1050A000FFF790F80EBD3EB5044602208DF80000D3
:1050B000CA208DF80100E3208DF8020009208DF848
:1050C00003006A4604216820FFF77CF8A3208DF8CE
:1050D0000000610609D5C0218DF80110C8218DF8A6
:1050E0000210C2218DF8031005E08DF801008DF843
:1050F00002008DF8030014F4C07F09D0C4218DF89C
:105100000410CC218DF80510C6218DF8061005E09D
:105110008DF804008DF805008DF806008DF8080064
:105120008DF807008DF809006A460A2140F6A7208D
:10513000FFF748F8A0074FF0D80503D020208DF8DE
:10514000000001E08DF800506A46012140F6B620CB
:10515000FFF738F8A00601D5012000E00020FFF796
:105160008CFF14F4C07F1ED0E0050AD5B2208DF864
:1051700000008B208DF80100B6208DF802009B20E6
:1051800009E0B0208DF8000080208DF80100B420E7
:105190008DF8020090208DF803006A46042140F645
:1051A000A220FFF70FF8E1074FF40B6022D0F8219F
:1051B0008DF800106A460121FFF704F8FA21072054
:1051C000FFF792FD0720FFF739FE0120FFF756FE9B
:1051D0006420FFF764FE4FF4FA70FFF770FEC821F9
:1051E0009248FFF77CFE2820FFF791FE0A20FFF788
:1051F0009EFE05E08DF800506A460121FEF7E2FFB1
:10520000A00703D5D9208DF8000001E08DF80050EB
:105210006A46012140F23D70FEF7D4FF600701D5D8
:10522000012000E00020FFF70BFFE00601D5012080
:1052300000E00020FFF7E7FE7D4D44F008006881A4
:10524000FEF707F80020A873600601D50620A873B2
:1052500014F4C07F02D0A87B801DA87314F0140F33
:1052600002D0A87B1030A873A00702D0A87B001D35
:10527000A87300203EBD6E49498901800020704717
:1052800000B56CA187B0D1E9002389680092CDE90F
:1052900001316BA10128D1E9002389680392CDE98E
:1052A000043140F6822307D0022803D04FF0FF30AC
:1052B00007B000BD6A4600E003AA0B211846FEF7BE
:1052C00081FFF5E72DE9FF4F89B01746DDE916525A
:1052D0000024574E884681462C80A246B07B694602
:1052E000FEF7E7FC4FF0FF3B18B158460DB0BDE8A4
:1052F000F08F708910F0140F3CD0009909BA21F09A
:10530000FF039DF803100B433B6001991B1409BA7E
:1053100021F0FF029DF807105B430A437A6002996F
:105320009DF80B4009BA21F0FF012143B960039CAD
:10533000091424BA24F0FF0C9DF80F4012144CEA13
:10534000040CC7F80CC04FEA2C47494302FB023259
:1053500007FB071111441024A1F17061B1F1007F26
:1053600004D9FDF776FFA5F800A0BEE7298841F42F
:10537000807129804206694611D50A19A41D138837
:105380005BBAA8F8003053885BBAA8F8023092885C
:1053900052BAA8F804202A8842F008022A8010F4A1
:1053A000C07F11D00A19A41D13885BBAA9F8003078
:1053B00053885BBAA9F80230928852BAA9F804203F
:1053C0002A8842F070022A80800716D00C44E078C8
:1053D00000F0C00500F03F016078C00706D0C808A3
:1053E00001F007013268491C02B19047607800075C
:1053F00003D5716809B1A80988470C98FEF705FA2A
:10540000002073E70A490860002070470849486097
:1054100000207047B8AAB38DB4980D355D00000028
:10542000B8AAAAAAB088C3C5C700000009E3CA0287
:1054300010050020D8B1B9F38BA391B609B4D900F7
:10544000DAB1B9F38BA391B6DAB4DA000220FCF733
:1054500032BB38B501210820FBF77CFA4FF44064D9
:10546000ADF8004010208DF8030003207A4D8DF830
:10547000020069462846FBF786F821462846FBF7D6
:10548000ECF838BD70B57448001D016821F4704116
:105490000160016841F440510160704C012060607E
:1054A00020600220FCF707FB002565600220FCF766
:1054B00002FB256070BD684810B5001D016821F42D
:1054C00070410160016841F440510160634C00206B
:1054D000206060600220FCF7EEFA0120206060602E
:1054E000BDE810400220FCF7E6BA70B55A48002427
:1054F000001D016821F470410160016841F4004120
:105500000160574D0126C5F8AC610220FCF7D3FAC3
:10551000C5F8A8610220FCF7CEFA07E0641CE4B2EB
:10552000FA2C03D9FFF7C7FF012070BDD5F82C0175
:105530000028F3D1C5F8A80170BD70B5474C00250F
:1055400025604548001D016821F470410160016833
:1055500041F44051016065600220FCF7ACFA012083
:1055600020600220FCF7A7FA256070BD70B53B4CA7
:10557000002525603848001D016821F47041016054
:10558000016841F440510160012666600220FCF789
:1055900092FA26600220FCF78EFA256070BD2DE994
:1055A000F04106462C48001D016821F4704101605D
:1055B000016841F440510160294C0027C4F8A871EA
:1055C0003D464FF00108F009C4F8AC017006060E24
:1055D000C4F8A8810220FCF76EFAC4F8A871022072
:1055E000FCF769FA6D1CEDB2082DECD3BDE8F08133
:1055F0002DE9F047814618480024001D016821F478
:1056000070410160016841F400410160144E25467B
:1056100027464FF0010800BFC6F8A8710220FCF72A
:105620004AFAC6F8A8816006040ED6F82C0108B123
:10563000641CE4B20220FCF73EFA6D1CEDB2082DAA
:10564000EAD3B9F1000F04D0FFF777FF2046BDE899
:10565000F087FFF78BFFF9E7000C0140A88121429A
:105660000080214270B50C46054641F6583141F2A2
:1056700088308D4200DD05468C4200DD04461A4923
:105680001A488D4200DA05468C4200DA0446184E6C
:10569000002D07DD05F57A75A9B23046FBF7EDFE62
:1056A000002106E000213046FBF7E7FEC5F57A70E1
:1056B00081B23046FBF7E3FE0E4D002C07DD04F50A
:1056C0007A74A1B22846FBF7D8FE002106E000213B
:1056D0002846FBF7D2FEC4F57A7081B22846BDE8B1
:1056E0007040FBF7D0BE0000A8E4FFFF78ECFFFF9E
:1056F00000040040002C01402DE9F0410024254623
:10570000002905DA01240027D0EB070067EB01012F
:10571000002B05DA0027D2EB0702012567EB030314
:1057200000F013FB86460E4617469C46AC4204D05A
:105730000025D0EB050E65EB010624B10020D2EB6D
:10574000000760EB030C704631463A466346BDE8FD
:10575000F081D2B201E000F8012B491EFBD2704764
:105760000022F6E710B513460A4604461946FFF72D
:10577000F0FF204610BD30B504460020034600E08F
:105780005B1C934203D2E05CCD5C401BF8D030BD83
:10579000F0B480EA0102D40F4200B2EB410F02D212
:1057A0000246084611464A0042D0C30DDDB2C1F39D
:1057B000C752AD1A202D35DAC1F3160141F40002AB
:1057C00004B15242C5F1200602FA06F12A41104402
:1057D000B3EBD05F23D0C4B1012DA0EBC35009DCE3
:1057E000F0BC4FF0004202EAC35200F50000DBB209
:1057F00000F006BB400000F1807000EBC350A0F148
:10580000807040EAD170490009E0490841EAC0715E
:10581000A0EBC35000F50000400800EBC350F0BC03
:1058200000F0E5BA6142012202EB4101001BF6E7FC
:10583000F0BC704781F00041AAE780F00040A7E784
:1058400080EA010210B502F00043400026D04A0071
:1058500023D04FEA106101EB1261C0F35600C2F38E
:10586000560240F4000042F40002A0FB0220A1F125
:105870007F014FEA0040140401D000F1010050EA1A
:10588000124001D44000491EC2B20C0604EBD010F5
:10589000401C4008802A02D003E0002010BD20F008
:1058A0000100002900DA0020184310BD30B480EA5E
:1058B000010202F0004530F0004221F0004015D016
:1058C000A0B1C0F3C753C2F3C754C2F31601C0F36B
:1058D0001600E41A41F4000140F400027D349142C4
:1058E00001D3641C00E04900002C02DA30BC002027
:1058F00070474FF400000023914201D3891A0343FB
:1059000040084FEA4101F7D151B1914202D14FF025
:10591000004105E002D24FF0010101E06FF001010A
:1059200003EBC450284430BC00F061BA420005D0FB
:10593000C0F3C7525242914201DC0020704700EB95
:10594000C15070472DE9FE4F804681EA0300C00F29
:105950000C46009021F0004123F00045B8EB020016
:10596000A94105D24046214690461C460B460246B8
:1059700023F00040104304D14046214603B0BDE867
:10598000F08F270DC7F30A00C3F30A510290401AA3
:105990000190402866DAC3F3130040F4801B00989E
:1059A000924620B10023D2EB030A63EB0B0B019864
:1059B0005946C0F14002504600F0F8F906460D463F
:1059C00050465946019A00F000FA10EB0800614178
:1059D000002487EA115284EAE7731A433BD0009A05
:1059E0003AB3019A012A4FEA075210DC001B61EB1F
:1059F00002014FF0004202EA0752CDE90042001CCA
:105A000041F5801132462B4600F034FAB6E7001B10
:105A100061EB0201001C41F5801300185B41201866
:105A2000A2F5001747EB030140EAD570B6196D41A6
:105A300011E06D084FEA360645EAC0754FEA075295
:105A4000001B61EB0201001C41F5801149084FEA7F
:105A500030000019514132462B4603B0BDE8F04FEB
:105A600000F0FBB90098012240000023D0EB0202B5
:105A700063EBE073009821464FEAE074B8EB000056
:105A800061EB0401E9E783F000435BE781F000414B
:105A900058E72DE9FE4F81EA030404F0004421F0A9
:105AA000004100944FF0000B23F0004350EA010442
:105AB00002D052EA030404D10020014603B0BDE83D
:105AC000F08FC3F30A54C1F30A552C44A4F2F33403
:105AD0000194A0FB0254C1F3130141F48011C3F3FC
